:020000040800F2
:1000000000280020DD0300088103000887030008A2
:100010008D03000893030008990300080000000006
:100020000000000000000000000000009F03000826
:10003000AB03000800000000B7030008C30300087A
:1000400025040008250400082504000825040008EC
:1000500025040008250400082504000825040008DC
:1000600025040008250400082504000825040008CC
:1000700025040008250400082504000825040008BC
:1000800025040008250400082504000825040008AC
:10009000250400082504000825040008250400089C
:1000A000250400082504000825040008250400088C
:1000B00025040008250400080000000025040008AD
:1000C00025040008000000000000000025040008CE
:1000D00000000000250400082504000800000000BE
:1000E000250400082504000825040008000000007D
:1000F0000000000000000000000000000000000000
:0C01000000000000000000005FF808F1A3
:10010C0010B5054C237833B9044B13B10448AFF345
:10011C0000800123237010BD0C00002000000000A3
:10012C006412000808B5034B1BB103490348AFF335
:10013C00008008BD000000001000002064120008C0
:10014C0080B500AF00F06AF900F06CF800F0A6F88A
:10015C0001224FF48071324800F044FC01224FF42C
:10016C0000712F4800F03EFC01224FF480612C48B6
:10017C0000F038FC01222021294800F033FC012238
:10018C004021274800F02EFC01228021244800F059
:10019C0029FC4FF48071224800F03CFC802120485F
:1001AC0000F038FC40F6B83000F09AF980211C4879
:1001BC0000F030FC40211A4800F02CFC4FF4FA609F
:1001CC0000F08EF94FF48071154800F023FC4021AB
:1001DC00134800F01FFC2021114800F01BFC4FF4C9
:1001EC0080610F4800F016FC40F6B83000F078F94A
:1001FC004FF480610A4800F00DFC4FF40071084880
:10020C0000F008FC4FF4FA6000F06AF94FF400714A
:10021C00034800F0FFFB2021014800F0FBFBB8E78E
:10022C000008014080B590B000AF07F118032822F8
:10023C000021184601F008F83B1D00221A605A6094
:10024C009A60DA601A610223BB610123BB6210233E
:10025C00FB6200237B6307F11803184600F0F4FBE4
:10026C000346002B01D000F04DF80F237B600023D8
:10027C00BB600023FB6000233B6100237B613B1DC3
:10028C000021184600F060FE0346002B01D000F060
:10029C0039F800BF4037BD4680BD000080B586B040
:1002AC0000AF07F1080300221A605A609A60DA6006
:1002BC00124B9B69114A43F0040393610F4B9B69EA
:1002CC0003F004037B607B6800224FF4FC610C4854
:1002DC0000F088FB4FF4FC63BB600123FB60002340
:1002EC003B6102237B6107F108031946044800F0C7
:1002FC00FFF900BF1837BD4680BD00BF001002409B
:10030C000008014080B400AF72B600BFFEE70000E9
:10031C0080B485B000AF154B9B69144A43F00103C0
:10032C009361124B9B6903F00103BB60BB680F4BDD
:10033C00DB690E4A43F08053D3610C4BDB6903F04D
:10034C0080537B607B680A4B5B68FB60FB6823F027
:10035C00E063FB60FB6843F08063FB60044AFB686E
:10036C00536000BF1437BD4680BC7047001002407C
:10037C000000014080B400AFFEE780B400AFFEE7A0
:10038C0080B400AFFEE780B400AFFEE780B400AFEE
:10039C00FEE780B400AF00BFBD4680BC704780B4A0
:1003AC0000AF00BFBD4680BC704780B400AF00BF3B
:1003BC00BD4680BC704780B500AF00F075F800BF3B
:1003CC0080BD80B400AF00BFBD4680BC704700004C
:1003DC00FFF7F7FF0B480C490C4A002302E0D458F6
:1003EC00C4500433C4188C42F9D3094A094C002375
:1003FC0001E013600432A242FBD300F001FFFFF7CF
:10040C009FFE7047000000200C000020A81200087E
:10041C000C0000202C000020FEE7000080B500AF8F
:10042C00084B1B68074A43F010031360032000F0CD
:10043C002BF90F2000F008F8FFF76AFF002318468D
:10044C0080BD00BF0020024080B582B000AF786054
:10045C00124B1A68124B1B7819464FF47A73B3FB84
:10046C00F1F3B2FBF3F3184600F035F90346002B19
:10047C0001D001230EE07B680F2B0AD8002279688B
:10048C004FF0FF3000F00BF9064A7B681360002335
:10049C0000E0012318460837BD4680BD000000204F
:1004AC00080000200400002080B400AF054B1B782E
:1004BC001A46054B1B681344034A136000BFBD4624
:1004CC0080BC7047080000202800002080B400AFDA
:1004DC00024B1B681846BD4680BC704728000020A4
:1004EC0080B584B000AF7860FFF7F0FFB8607B6830
:1004FC00FB60FB68B3F1FF3F05D00A4B1B781A4633
:10050C00FB681344FB6000BFFFF7E0FF0246BB68CB
:10051C00D31AFA689A42F7D800BF00BF1037BD460D
:10052C0080BD00BF0800002080B485B000AF7860AB
:10053C007B6803F00703FB600C4BDB68BB60BA689D
:10054C004FF6FF031340BB60FB681A02BB681343F2
:10055C0043F0BF6343F40033BB60044ABB68D36011
:10056C0000BF1437BD4680BC704700BF00ED00E0F3
:10057C0080B400AF044BDB681B0A03F0070318467A
:10058C00BD4680BC704700BF00ED00E080B483B076
:10059C0000AF03463960FB7197F90730002B0ADB7B
:1005AC003B68DAB20C4997F907301201D2B20B440E
:1005BC0083F800230AE03B68DAB20849FB7903F0C0
:1005CC000F03043B1201D2B20B441A7600BF0C3756
:1005DC00BD4680BC704700BF00E100E000ED00E0CC
:1005EC0080B489B000AFF860B9607A60FB6803F042
:1005FC000703FB61FB69C3F10703042B28BF04232A
:10060C00BB61FB690433062B02D9FB69033B00E099
:10061C0000237B614FF0FF32BB6902FA03F3DA432C
:10062C00BB681A407B699A404FF0FF317B6901FA35
:10063C0003F3D9437B680B40134318462437BD465C
:10064C0080BC704780B582B000AF78607B68013B9E
:10065C00B3F1807F01D301230FE00A4A7B68013B91
:10066C0053600F214FF0FF30FFF790FF054B002236
:10067C009A60044B07221A60002318460837BD46BF
:10068C0080BD00BF10E000E080B582B000AF7860A4
:10069C007868FFF749FF00BF0837BD4680BD80B5BD
:1006AC0086B000AF0346B9607A60FB7300237B61B0
:1006BC00FFF75EFF78617A68B9687869FFF790FF99
:1006CC00024697F90F3011461846FFF75FFF00BF3F
:1006DC001837BD4680BD80B582B000AF78607868B1
:1006EC00FFF7B0FF034618460837BD4680BD000033
:1006FC0080B48BB000AF7860396000237B6200233C
:10070C003B6248E101227B6A02FA03F3FB613B681E
:10071C001B68FA691340BB61BA69FB699A4240F0E5
:10072C0037813B685B68A34A93425ED0A14A9342EF
:10073C0075D8A14A934258D09F4A93426FD89F4A8A
:10074C00934252D09D4A934269D89D4A93424CD0D1
:10075C009B4A934263D89B4A934246D0994A934210
:10076C005DD8122B2AD8122B59D801A252F823F09B
:10077C00F7070008D1070008E30700082508000860
:10078C002B0800082B0800082B0800082B08000871
:10079C002B0800082B0800082B0800082B08000861
:1007AC002B0800082B0800082B0800082B08000851
:1007BC002B080008D9070008ED070008824A93426D
:1007CC0013D02CE03B68DB683B6229E03B68DB68BC
:1007DC0004333B6224E03B68DB6808333B621FE078
:1007EC003B68DB680C333B621AE03B689B68002B70
:1007FC0002D104233B6213E03B689B68012B05D1BB
:10080C0008233B627B68FA691A6109E008233B62A2
:10081C007B68FA695A6103E000233B6200E000BF89
:10082C00BB69FF2B01D87B6801E07B6804337B61DB
:10083C00BB69FF2B02D87B6A9B0002E07B6A083BFA
:10084C009B003B617B691A680F213B6901FA03F33A
:10085C00DB431A40396A3B6901FA03F31A437B699B
:10086C001A603B685B6803F08053002B00F09080AB
:10087C00564B9B69554A43F001039361534B9B695B
:10088C0003F00103BB60BB68514A7B6A9B080233CF
:10089C0052F82330FB607B6A03F003039B000F22AA
:1008AC0002FA03F3DB43FA681340FB607B68494AA6
:1008BC0093420DD07B68484A934207D07B68474AE5
:1008CC00934201D1022304E0032302E0012300E060
:1008DC0000237A6A02F0030292009340FA681343F1
:1008EC00FB603B497B6A9B080233FA6841F8232082
:1008FC003B685B6803F48013002B06D0384B9A6876
:10090C003749BB6913438B6006E0354B9A68BB696A
:10091C00DB43334913408B603B685B6803F4001383
:10092C00002B06D02E4BDA682D49BB691343CB60E4
:10093C0006E02B4BDA68BB69DB4329491340CB60DB
:10094C003B685B6803F40033002B06D0244B5A68D9
:10095C002349BB6913434B6006E0214B5A68BB69C2
:10096C00DB431F4913404B603B685B6803F48033E7
:10097C00002B06D01A4B1A681949BB6913430B603C
:10098C0006E0174B1A68BB69DB43154913400B6033
:10099C007B6A01337B623B681A687B6A22FA03F339
:1009AC00002B7FF4AFAE00BF00BF2C37BD4680BC20
:1009BC00704700BF00003210000031100000221000
:1009CC000000211000001210000011100010024055
:1009DC000000014000080140000C014000100140E3
:1009EC000004014080B483B000AF78600B467B807C
:1009FC0013467B707B78002B03D07A887B681A6156
:100A0C0003E07B881A047B681A6100BF0C37BD4673
:100A1C0080BC704780B485B000AF78600B467B809B
:100A2C007B68DB68FB607A88FB6813401A04FB6800
:100A3C00D9437B880B401A437B681A6100BF14377B
:100A4C00BD4680BC7047000080B586B000AF7860B2
:100A5C007B68002B01D101236CE27B681B6803F0DF
:100A6C000103002B00F08780924B5B6803F00C03B2
:100A7C00042B0CD08F4B5B6803F00C03082B12D1AA
:100A8C008C4B5B6803F48033B3F5803F0BD1894BFF
:100A9C001B6803F40033002B6CD07B685B68002B65
:100AAC0068D1012346E27B685B68B3F5803F06D1D1
:100ABC00804B1B687F4A43F4803313602EE07B68C5
:100ACC005B68002B0CD17B4B1B687A4A23F4803378
:100ADC001360784B1B68774A23F4802313601DE066
:100AEC007B685B68B3F5A02F0CD1724B1B68714A05
:100AFC0043F4802313606F4B1B686E4A43F48033BE
:100B0C0013600BE06B4B1B686A4A23F48033136051
:100B1C00684B1B68674A23F4802313607B685B680F
:100B2C00002B13D0FFF7D2FC386108E0FFF7CEFCA6
:100B3C0002463B69D31A642B01D90323FAE15D4BBE
:100B4C001B6803F40033002BF0D014E0FFF7BEFC5D
:100B5C00386108E0FFF7BAFC02463B69D31A642BF4
:100B6C0001D90323E6E1534B1B6803F40033002B3C
:100B7C00F0D100E000BF7B681B6803F00203002B80
:100B8C0063D04C4B5B6803F00C03002B0BD0494B30
:100B9C005B6803F00C03082B1CD1464B5B6803F419
:100BAC008033002B16D1434B1B6803F00203002B40
:100BBC0005D07B681B69012B01D00123BAE13D4BA9
:100BCC001B6823F0F8027B685B69DB00394913432F
:100BDC000B603AE07B681B69002B20D0364B01225E
:100BEC001A60FFF773FC386108E0FFF76FFC0246F0
:100BFC003B69D31A022B01D903239BE12D4B1B68B4
:100C0C0003F00203002BF0D02A4B1B6823F0F802F0
:100C1C007B685B69DB00274913430B6015E0264BAF
:100C2C0000221A60FFF752FC386108E0FFF74EFC17
:100C3C0002463B69D31A022B01D903237AE11D4BDF
:100C4C001B6803F00203002BF0D17B681B6803F0D8
:100C5C000803002B3AD07B689B69002B19D0174BEB
:100C6C0001221A60FFF732FC386108E0FFF72EFC16
:100C7C0002463B69D31A022B01D903235AE10D4BCF
:100C8C005B6A03F00203002BF0D0012000F09AFA0B
:100C9C001CE00A4B00221A60FFF718FC38610FE0C9
:100CAC00FFF714FC02463B69D31A022B08D9032325
:100CBC0040E100BF0010024000004242800442426A
:100CCC009E4B5B6A03F00203002BE9D17B681B6827
:100CDC0003F00403002B00F0A6800023FB75974B58
:100CEC00DB6903F08053002B0DD1944BDB69934AE5
:100CFC0043F08053D361914BDB6903F08053BB60AD
:100D0C00BB680123FB758E4B1B6803F48073002BAF
:100D1C0018D18B4B1B688A4A43F480731360FFF71E
:100D2C00D5FB386108E0FFF7D1FB02463B69D31ACB
:100D3C00642B01D90323FDE0814B1B6803F4807302
:100D4C00002BF0D07B68DB68012B06D17B4B1B6A38
:100D5C007A4A43F0010313622DE07B68DB68002BB9
:100D6C000CD1764B1B6A754A23F001031362734B4B
:100D7C001B6A724A23F0040313621CE07B68DB6875
:100D8C00052B0CD16D4B1B6A6C4A43F004031362A8
:100D9C006A4B1B6A694A43F0010313620BE0674B11
:100DAC001B6A664A23F001031362644B1B6A634A95
:100DBC0023F0040313627B68DB68002B15D0FFF76C
:100DCC0085FB38610AE0FFF781FB02463B69D31AC9
:100DDC0041F28832934201D90323ABE0574B1B6A93
:100DEC0003F00203002BEED014E0FFF76FFB386129
:100DFC000AE0FFF76BFB02463B69D31A41F28832DB
:100E0C00934201D9032395E04C4B1B6A03F0020378
:100E1C00002BEED1FB7D012B05D1484BDB69474AFA
:100E2C0023F08053D3617B68DB69002B00F0818059
:100E3C00424B5B6803F00C03082B61D07B68DB69C9
:100E4C00022B46D13F4B00221A60FFF73FFB386163
:100E5C0008E0FFF73BFB02463B69D31A022B01D992
:100E6C00032367E0354B1B6803F00073002BF0D1B4
:100E7C007B681B6AB3F5803F08D1304B5B6823F469
:100E8C0000327B689B682D4913434B602B4B5B688E
:100E9C0023F474127B68196A7B685B6A0B432749DD
:100EAC0013434B60274B01221A60FFF70FFB38618D
:100EBC0008E0FFF70BFB02463B69D31A022B01D962
:100ECC00032337E01D4B1B6803F00073002BF0D09D
:100EDC002FE01C4B00221A60FFF7F8FA386108E08B
:100EEC00FFF7F4FA02463B69D31A022B01D903230C
:100EFC0020E0124B1B6803F00073002BF0D118E0BC
:100F0C007B68DB69012B01D1012313E00B4B5B6880
:100F1C00FB60FB6803F480327B681B6A9A4206D143
:100F2C00FB6803F470127B685B6A9A4201D0012360
:100F3C0000E0002318461837BD4680BD0010024063
:100F4C00007000406000424280B584B000AF786011
:100F5C0039607B68002B01D10123D0E06A4B1B6800
:100F6C0003F007033A689A4210D9674B1B6823F0C9
:100F7C00070265493B6813430B60634B1B6803F026
:100F8C0007033A689A4201D00123B8E07B681B68DA
:100F9C0003F00203002B20D07B681B6803F00403D2
:100FAC00002B05D0594B5B68584A43F4E0635360FF
:100FBC007B681B6803F00803002B05D0534B5B6860
:100FCC00524A43F460535360504B5B6823F0F00279
:100FDC007B689B684D4913434B607B681B6803F02F
:100FEC000103002B40D07B685B68012B07D1474B7A
:100FFC001B6803F40033002B15D101237FE07B68C1
:10100C005B68022B07D1414B1B6803F00073002B6C
:10101C0009D1012373E03D4B1B6803F00203002B45
:10102C0001D101236BE0394B5B6823F003027B6831
:10103C005B68364913434B60FFF748FAF8600AE0E7
:10104C00FFF744FA0246FB68D31A41F28832934206
:10105C0001D9032353E02D4B5B6803F00C027B6832
:10106C005B689B009A42EBD1274B1B6803F007038C
:10107C003A689A4210D2244B1B6823F0070222498B
:10108C003B6813430B60204B1B6803F007033A6863
:10109C009A4201D0012332E07B681B6803F0040301
:1010AC00002B08D0194B5B6823F4E0627B68DB688B
:1010BC00164913434B607B681B6803F00803002B35
:1010CC0009D0124B5B6823F460527B681B69DB0010
:1010DC000E4913434B6000F021F802460B4B5B6842
:1010EC001B0903F00F030A49CB5C22FA03F3094AEC
:1010FC001360094B1B681846FFF7A6F90023184626
:10110C001037BD4680BD00BF0020024000100240D9
:10111C007C120008000000200400002080B487B07E
:10112C0000AF0023FB600023BB6000237B61002326
:10113C007B6000233B611E4B5B68FB60FB6803F02C
:10114C000C03042B02D0082B03D027E0194B3B6176
:10115C0027E0FB689B0C03F00F03174AD35C7B6002
:10116C00FB6803F48033002B10D0114B5B685B0CD5
:10117C0003F00103114AD35CBB607B680D4A02FB90
:10118C0003F2BB68B2FBF3F37B6104E07B680C4AAF
:10119C0002FB03F37B617B693B6102E0054B3B6126
:1011AC0000BF3B6918461C37BD4680BC704700BF6A
:1011BC000010024000127A008C1200089C120008E9
:1011CC0000093D0080B485B000AF78600A4B1B6805
:1011DC000A4AA2FB03235B0A7A6802FB03F3FB6057
:1011EC0000BFFB685A1EFA60002BF9D100BF00BF8C
:1011FC001437BD4680BC704700000020D34D6210F0
:10120C0070B500260C4D0D4C641BA410A64209D1E0
:10121C0000F022F800260A4D0A4C641BA410A642CA
:10122C0005D170BD55F8043B98470136EEE755F8EB
:10123C00043B98470136F2E7A0120008A012000800
:10124C00A0120008A412000803460244934200D1E5
:10125C00704703F8011BF9E7F8B500BFF8BC08BCF0
:10126C009E467047F8B500BFF8BC08BC9E46704758
:10127C00000000000000000001020304060708093A
:10128C0002030405060708090A0B0C0D0E0F1010BB
:04129C00010200004B
:0412A0003101000810
:0412A4000D01000830
:0C12A8000024F400100000000100000011
:04000005080003DD0F
:00000001FF
